:10056A00C2B18FA07F017E0012057BD2B67F057EC5
:01057A000080
:10057B00D3EF9400EE9400400F7DC77C01DCFEDDD1
:08058B00FAEF1F70EB1E80E87F
:010593002245
:0A05C200C2B6C2B012056AC2B6222A
:0A05CC00C2B6D2B012056AC2B62210
:100594007F381205C27F0C1205C27F061205C27F86
:0905A400011205C27F800205C2AC
:10052300112C4D6F64653A53746F7020416E7443A0
:100533004C4B00113D53706565643A2031303020D7
:10054300722F6D696E000451FEFDFBF708210C0D3F
:10055300090B0307060E024E0000022A0050015049
:0605630000012901C100A6
:0405AD007F0A7E0043
:1005B100D3EF9400EE94004007EF1F70F31E80F01C
:0105C1002217
:10047E00E4FDFC7580F074512DF8E6F58065806022
:10048E00451205AD74512DF8E665806039E580544E
:10049E00F02490602924C0601B24E0600D24F070CD
:1004AE0025ED25E025E004FC801CED25E025E0246B
:1004BE0002FC8012ED25E025E02403FC8008ED25EA
:0C04CE00E025E02404FC0DBD04ACAF04EC
:0104DA0022FF
:1003B600EF14B41000505F9003CB75F003A4C5830F
:1003C60025F0C583730203FB0203FE020401020447
:1003D6001902040402040702040A02041902040DA5
:1003E600020410020413020419020419020416027C
:1003F60004190204197F07227F08227F09227F043D
:10040600227F05227F06227F01227F02227F03228E
:070416007F00227F65222216
:02027D008F11DF
:10027F00E4F512120594E4F512E511700CC374093C
:10028F009512243DF876208015E51175F00A84E566
:10029F00F02430FFC374099512243DF8A607E51129
:1002AF0075F00A84F5110512E512B403CC30000C79
:1002BF0075315275327575336E75342020000C759B
:1002CF00315375327475336F753470E529B4010B82
:1002DF00753620753720753820800EE529B4FF0953
:1002EF0075364175376E753874E4F512742C251216
:1002FF00F8E6FF1205CC0512E512C3941040ED7F0E
:10030F00C01205C2E4F512743D2512F8E6FF12057E
:0A031F00CC0512E512C3941040ED66
:0103290022B1
:10041D00E4F50CF50DF50EF50FF51012047E8F0CAD
:10042D00EF6049E4F50FF51012047E8F0CEF603587
:10043D007580F0E58054F0FFBFF0F8AF0C1203B6F5
:10044D008F0DE50DB465028023AE0FAF107C007DDE
:10045D000A12016DAD0DED3395E0FCEF2DF510EEAB
:10046D003CF50F050EAF1012027D80BCAE0FAF1024
:01047D00225C
:10018D00750800750964E4F50AF50B758901758C20
:10019D00FC758A18D288D2A8D2AFD2A9A200928CAF
:1001AD00AF0912027D20940F30950C1205AD2094ED
:1001BD000630950375290130940F20950C1205AD6D
:1001CD003094062095037529FF2096173097141249
:1001DD0005AD20960E30970B3096FD0509E509709B
:1001ED000205083096172097141205AD30960E2093
:1001FD00970B3097FDE50915097002150812041DBE
:10020D008E0A8F0BC3E50B9414E50A94004011D3AD
:10021D00E50B94B4E50A94005006850A08850B0990
:10022D00AC08AD09E41200B3A804A905AA06AB07F2
:10023D007F007E607DEA7C451200111200EC8E2A53
:10024D008F2BC3E55064809480400CD3E5506480BF
:10025D00948750030201A9E529B40106E4F5500283
:10026D0001A9E529F460030201A97550070201A94E
:03000B000204DB11
:1004DB00C0E0C0D075D000C000758CFC758A1805C3
:1004EB004FE54F7002054EC3952BE54E952A4021E3
:1004FB0074212550F8E6A2E39293A2E29292A2E134
:10050B009291139290E5292550F550754E00754F39
:08051B0000D000D0D0D0E03286
:030003000205D61D
:0605D60020B202B2003267
:10000E00020162EC5D046005E859047003020158B8
:10001E00120123580460F6EC4860F2EC7004FDFE09
:10002E00FF22C860DB2481C85009C39860025006C5
:10003E0002015F9850CAF582E9294B4A7005AB82DE
:10004E0002014E75F0007C1A7880C3EF9BEE9AED9C
:10005E0099400DC3EF9BFFEE9AFEED99FDE842F03D
:10006E00DC23ACF0D0E0FFD0E0FED0E0FDAB822090
:10007E00E7101BEB60BAEC2CFCEF33FFEE33FEED1A
:10008E0033FD02013AE803F830E705C0F075F000E1
:10009E00EF2FFFEE33FEED33FD40B830E7C280AAFE
:1000AE0075F020800E75F010800575F0087D007ECD
:1000BE00007F003392D530D50312017FEC33401010
:1000CE00EF33FFEE33FEED33FDEC33FCD5F0ED22D6
:0E00DE00E5F0247EA2D513CC92E7CDCEFF2212
:1000EC00EDD2E7CD33EC3392D524814006E4FFFE0C
:1000FC00FDFC22FCE4CFCECDCC24E0501174FF806B
:10010C00EDC3CC13CCCD13CDCE13CECF13CF047007
:07011C00F030D5DE02017F87
:10012300E9D2E7C933E833F892D5EDD2E7CD33EC22
:0701330033FC5002B2D5229B
:10013A00EC30E7100FBF000C0EBE00080DBD000426
:10014A000BEB6014A2D5EB13FCED92E7FD2274FFD2
:10015A00FCFDFEFF22E480F8A2D574FF13FC7D802B
:03016A00E480EF3F
:0300000002032ACE
:0C032A00787FE4F6D8FD75815402037161
:10016D00EF8DF0A4A8F0CF8CF0A428CE8DF0A42EA6
:02017D00FE2260
:0E017F00C3E49FFFE49EFEE49DFDE49CFC2291
:1003360002018DE493A3F8E493A34003F68001F24F
:1003460008DFF48029E493A3F85407240CC8C333C8
:10035600C4540F4420C8834004F456800146F6DF97
:10036600E4800B0102040810204080900523E47EFF
:10037600019360BCA3FF543F30E509541FFEE4938C
:10038600A360010ECF54C025E060A840B8E493A353
:10039600FAE493A3F8E493A3C8C582C8CAC583CA7E
:1003A600F0A3C8C582C8CAC583CADFE9DEE780BE36
:010569000091
:00000001FF
